:10000000784E002029210000152000002521000045
:1000100025210000252100002521000025210000C8
:10002000000000000000000000000000252100008A
:1000300025210000000000002521000025210000EE
:100040000000000051180000000000000000000047
:10005000C513000031130000291E0000B114000078
:100060000000000000000000000000000000000090
:100070000000000000000000651400000000000007
:100080000000000000000000000000000000000070
:100090000000000000000000000000000000000060
:1000A0000000000000000000000000000000000050
:1000B0000000000000000000000000000000000040
:10040000FFFFFFFFDFCEFFFFFCFF0F00FFFF0F002E
:10041000FCFF0F00FFFF0F00FCFF0F00FFFF0F00AE
:10042000FCFF0F20FFFF0F20FCFF7F40FFFF7F40FE
:10043000FCFF0D40FFFF0D40FFFFFFFFFFFFFFFF31
:10044000FFFFFFFFFFFFFFFFFFFFFFFFFFFFFFFFBC
:10045000FFFFFFFFFFFFFFFFFFFFFFFFFFFFFFFFAC
:10046000FFFFFFFFFFFFFFFFFFFFFFFFFFFFFFFF9C
:10047000FFFFFFFFFFFFFFFFFFFFFFFFFFFFFFFF8C
:10048000FFFFFFFFFFFFFFFFFFFFFFFFFFFFFFFF7C
:10049000FFFFFFFFFFFFFFFFFFFFFFFFFFFFFFFF6C
:1004A000FFFFFFFFFFFFFFFFFFFFFFFFFFFFFFFF5C
:1004B000FFFFFFFFFFFFFFFFFFFFFFFFFFFFFFFF4C
:1004C000FFFFFFFFFFFFFFFFFFFFFFFFFFFFFFFF3C
:1004D000FFFFFFFFFFFFFFFFFFFFFFFFFFFFFFFF2C
:1004E000FFFFFFFFFFFFFFFFFFFFFFFFFFFFFFFF1C
:1004F000FFFFFFFFFFFFFFFFFFFFFFFFFFFFFFFF0C
:1005000010B544F28804C2F20004237863B940F2C3
:100510000003C0F200032BB142F6D060C0F200002D
:1005200000E000BF0123237010BDC04640F200036D
:10053000C0F2000310B54BB144F28C0142F6D0601A
:10054000C2F20001C0F2000000E000BF10BDC046D2
:10055000F8B58368C568CE4699465B1B4746984602
:100560004368040080B50E0017005819904509D95A
:1005700001F08EFEBFF35F8FED19E560C0BCB94698
:10058000B046F8BD424601F083FE4B463100ED19FE
:10059000ED1A2A006068414401F07AFEBFF35F8FD4
:1005A000E560EBE7F8B54746CE46884680B51600CD
:1005B000070040F20009C56884681CE0013B5B1B32
:1005C000641BB44200D934009C4200D91C007B68F3
:1005D00022004146581901F05BFE2D19A144A044A8
:1005E000361BBC68631B5A1E93415B421D40BFF320
:1005F0005F8FFD6036B13B699D42DFD3013B1B1924
:100600005B1BDDE74846C0BCB946B046F8BDC046F6
:1006100010B544F2A404C2F20004A8220021200074
:1006200001F03FFE032342F250422361636144F232
:100630005C13C0F20002C2F20003A261E36140F267
:10064000004323620023A3626362E362226644F2F2
:100650004C12C2F2000262661022A2662367E366B1
:100660006367BFF35F8F42F25C425321C0F2000226
:1006700001E00F215156E1540133013A102BF8D11A
:10068000BFF35F8F10BDC046F8B544F2A4034546E2
:100690004E46DE465746C2F200031B78E0B5884658
:1006A00006001500002B65D044F2A402C2F200023D
:1006B00094467700BB19DB0063441A6F9146DA6EEB
:1006C000924691452ED813004A462C009B1A9D4213
:1006D00007D84CB92000F0BCBB46B246A946A0469C
:1006E000F8BD1C00002CF5D0A24644F2A402C2F2D0
:1006F00000029446BB19DB006344596E2200494452
:100700004046A14401F0C4FD5446002CE2D044F21E
:10071000A403C2F200039C464B46BF19FF00674486
:100720003B67D7E74A469B6E2C009B1A9D4228D810
:1007300044F2A402C2F200029346BB19DB009B44C0
:100740005B46596E22004944404601F0A1FD5B46DC
:100750009B6EA1442D1B4B4515D053464A469B1A10
:100760009A46554509D8002DCFD0A246A044AA44A8
:100770002C00BAE7FFF74CFF96E75546002DC4D092
:10078000F3E71C00D4E740F20009EAE710B50B00DC
:10079000EFF31084012181F310881900FFF774FF33
:1007A00084F3108810BDC046431C70B50400580087
:1007B000C01844F2A403C2F200039C4663001B1954
:1007C000DB006344DC6AC00015006044012C05D0E6
:1007D000022C1ED084B10024200070BD9A6A5C6A8D
:1007E000A2421FD9013A121B2C00954200D91400D5
:1007F0002200FFF7ADFEEFE79A6A5E6AB2420CD9BB
:10080000013A921B9542E7D82A00FFF7A1FE2C007F
:10081000E2E7FFF7C7FE0400DEE71B6AD218013AE1
:10082000921BEFE71B6AD218013A121BDCE7C046A5
:10083000F8B544F2A403C2F200031B7804000D00D3
:10084000160063B1EFF31087012181F310883200A5
:1008500029002000FFF7A8FF87F31088F8BDFFF7F5
:10086000D7FEEFE710B544F2A404C2F200042378E7
:100870002BB1E36E206FC01A431E984110BDFFF7E5
:10088000C7FEF6E710B5040083686268581C904202
:1008900007D82268D154E36862680133E36003003B
:1008A000A0609A4200D010BD21682069FFF7C0FF08
:1008B000A368984203D001235B42E360F3E700237F
:1008C000A360F0E7F8B557464E464546DE46E0B52C
:1008D0001E000A9B0F00814615009A460B9997420D
:1008E0006DD33B000122B3FBF5F301329D42FAD9EF
:1008F0009046B24200D2B04601231A000A40934605
:100900000B4240D15346002B3DD020248B0751D4BD
:10091000D04538D201235B429C4621004846E24440
:10092000FFF7B0FF4B46DB68002B26DB5346002B5E
:10093000EED10124012E03D9013E6C43012EFBD8D8
:10094000B7FBF4F39D42F8D942F2F446C0F2000638
:1009500006E0B4FBF5F3AC420DD31C00B7FBF3F398
:1009600022005A43F1564846BF1AFFF78BFF4B4609
:10097000DB68002BEDDA5B46C3B9F0BCBB46B24680
:10098000A946A046F8BD4B46DB68002BD1DAF4E758
:10099000D045F2D201235B429C4620214846E244E6
:1009A000FFF770FF4B46DB68002BE6DB5346002B5E
:1009B000EED1E2E77442744124012034A8E7012219
:1009C00096E7C046F0B5DE4657464E464546E0B58A
:1009D0009DB00CAB079340230893002309930A931F
:1009E000B74B83460C00904640F201099A460B90A3
:1009F00005E007A8FFF746FF0A98002861DB002101
:100A000061560134002963D02529F2D12200002348
:100A1000D356002602250820140021392D2B0DD095
:100A20002D2B0FDC232B12D02B2B00D04CE10E43AF
:100A300001320023D35614002D2BF1D14B46013245
:100A40001E43F6E7302B05D12E430132F1E7064372
:100A50000132EEE71A00303AD2B20025092A0FD847
:100A60001900AB005B195B005B1800210134615673
:100A7000303B0A00303AD2B21D00092AF1D90B00EE
:100A80002E2B00D1CDE000230027E356042102E005
:100A900000230134E3561A008A43682AF8D0252B34
:100AA00007D0583BDBB2202B07D852469B00D358C7
:100AB0009F46252107A8FFF7E5FE0A980134002884
:100AC0009DDA1DB0F0BCBB46B246A946A046F0BDBB
:100AD0000A980028F5DD099A002A00D0BDE08018A8
:100AE000EFE7434641461B6807A81A1D0A601968CC
:100AF00010223B0001960095FFF7E4FE01340A98AE
:100B0000DDE7434641461B6807A81A1D0A601968BD
:100B10000A223B0001960095FFF7D4FE01340A98A3
:100B2000CDE7434641461B681A1D0A601D6805E073
:100B300007A8FFF7A7FE0A980028BFDB0021695627
:100B400001350029F4D10A98B8E7434641461B68AD
:100B500007A81A1D0A6019680023019308331022A0
:100B60000093FFF7AFFE01340A98A8E743464146D9
:100B70001B681A1D1B680A60DA1703939B18534001
:100B80000122092B06DD0A201900013293FBF0F344
:100B90006329F9DC0497974267D385B3039B002B45
:100BA00067DB730765D4B30700D547B34B463342C1
:100BB00025D125B30596049EAE421FD207A8202159
:100BC000FFF760FE0A98013D002800DA76E7002D65
:100BD000F2D1059E039B002B4DDB730756D40323F4
:100BE0003340022B57D007A83B000A2203990196F5
:100BF0000095FFF767FE01340A9860E7059E0A98A2
:100C00000028E7DA01345AE7434641461B6807A843
:100C10001A1D0A6000215956FFF734FE01340A9864
:100C20004DE70123E356611C1A00303AD2B20C00A2
:100C30000027092A00D929E71900BB00DB195B004E
:100C40005B18002101346156303B0A00303AD2B2C1
:100C50001F00092AF1D90B0018E758460CA9FFF725
:100C6000E7FD0A98099A80182BE70492002DC6D058
:100C700094E7013D97E75B422D2107A80393FFF717
:100C800001FE0A980028AADA013418E72B2107A8E8
:100C9000FFF7F8FDF5E7002FA5D19DB1049BAB420E
:100CA00009D207A83021FFF7EDFD0A98013D002881
:100CB000F3DA013403E70A98002894DA0134FEE6F7
:100CC0007024000000258EE70025DCE60EB400B598
:100CD00082B003AB02CB01AA0193FFF773FE02B00F
:100CE00008BC03B01847C04642F6604144F2605069
:100CF00010B5C0F20001C2F2000000F0CDFC04000B
:100D000008B9200010BD42F2045342F2406242F2A0
:100D10003451C0F20003C0F20002C0F20001002012
:100D2000FFF7D4FFEDE7C04644F2605010B5C2F2C1
:100D3000000000F029FD040008B9200010BD42F2B7
:100D4000505342F22C6242F23451C0F20003C0F21E
:100D50000002C0F200010020FFF7B8FFEDE7C04637
:100D600044F2605010B5C2F2000000F043FD00B93B
:100D700010BD42F2805342F2186242F23451C0F286
:100D80000003C0F20002C0F200010020FFF79EFF46
:100D9000EEE7C04644F2785010B5C2F2000000F011
:100DA00093FD38B942F2D4510020C0F20001FFF7A0
:100DB0008DFF10BD42F2B05342F2046242F2345150
:100DC000C0F20003C0F20002C0F200010020FFF7F1
:100DD0007DFFEEE7002370B588B003AC20000393DD
:100DE00001F00EF942F250610020C0F20001FFF75D
:100DF0006DFF42F298610020C0F20001FFF766FF2C
:100E000042F2E06242F2E461C0F20002C0F200018C
:100E10000020FFF75BFF6178A378E278009142F24F
:100E200028710020C0F20001FFF750FF42F250612C
:100E30000020C0F20001FFF749FF42F2707100206C
:100E4000C0F20001FFF742FF42F2F0710020C0F251
:100E50000001FFF73BFF42F640010020C0F2000115
:100E6000FFF734FF42F678010020C0F20001FFF7DF
:100E70002DFF42F6CC010020C0F20001FFF726FF53
:100E800042F6605442F610110020C0F20001C0F298
:100E90000004FFF71BFF2388002B00D1BAE04EF2BD
:100EA0000003C022C4F20103995A890700D5F6E075
:100EB00000F01AF90400002800D0D7E0FFF714FF73
:100EC0000400002800D0B6E042F60C210020C0F259
:100ED0000001FFF7FBFE42F62821002044F25C549B
:100EE000C0F20001FFF7F2FE0026C2F20004FFF795
:100EF000B9FC70B92378032BF9D142F64C310020AC
:100F0000C0F200012670FFF7E1FEFFF7ABFC0028FE
:100F1000F0D00C22002105A8049601F0C2F910229D
:100F200004A90020FFF732FC04A801F0A5F9FF2373
:100F30000340012B1CD042F610310020C0F200010A
:100F4000FFF7C4FE42F620310020C0F20001FFF797
:100F5000BDFE42F60C210020C0F20001FFF7B6FEF4
:100F600042F628210020C0F20001FFF7AFFEC1E7E2
:100F70004BF200030221C4F201031A6944F29850B3
:100F80008A4342F6C4411A61C0F20001C2F2000075
:100F900000F05EF90500B0B900F0C6F8050078BBB6
:100FA000FFF7C2FE050080BB42F6A8210020C0F278
:100FB0000001FFF78BFE42F6D0210020C0F20001B5
:100FC000FFF784FE96E742F63823C0F2000342F6AC
:100FD000683242F23451C0F20002C0F20001002037
:100FE000FFF774FE00F0BCF8FFF7BAFE42F65411AA
:100FF0002A00C0F200010020FFF768FE00BE79E77A
:1010000042F65C23C0F20003E1E742F68023C0F21F
:101010000003DCE742F638110020C0F20001FFF7C0
:1010200055FE42F654110622C0F200010020FFF7DF
:101030004DFE00BE33E742F6E41342F67C3242F244
:101040003451C0F20003C0F20002C0F200010020DF
:10105000FFF73CFE00F084F842F654112200C0F283
:1010600000010020FFF732FE00BE2DE742F6C0135C
:1010700042F67C3242F23451C0F20003C0F2000268
:10108000C0F200010020FFF721FE42F654112200B9
:10109000C0F200010020FFF719FE00BE0EE702209B
:1010A000995A814344F2705099526368BF3A198843
:1010B000C2F2000000F038FA42F674110020C0F2CB
:1010C0000001FFF703FEF3E610B5022800D010BDC3
:1010D00042F6D84144F27050C0F20001C2F2000062
:1010E00000F0C2FAF3E7C04642F6744144F2785089
:1010F00010B5C0F20001C2F2000000F0A3FC040031
:1011000008B9200010BD42F6883342F6504242F240
:101110003451C0F20003C0F20002C0F2000100200E
:10112000FFF7D4FDEDE7C04644F2785010B5C2F2A7
:10113000000000F0DBFB040008B9200010BD42F6FF
:10114000B03342F6444242F23451C0F20003C0F2DE
:101150000002C0F200010020FFF7B8FDEDE7C04635
:1011600044F2785010B5C2F2000000F0F3FD00B96F
:1011700010BD42F6D43342F6304242F23451C0F24E
:101180000003C0F20002C0F200010020FFF79EFD44
:10119000EEE7C04644F2985010B5C2F2000000F0ED
:1011A00041F8E0B142F6605344F27050C0F20003DF
:1011B0005B6801221988C2F2000000F0B5F942F61E
:1011C000F83342F6204242F234510020C0F20003CC
:1011D000C0F20002C0F20001FFF778FD10BD44F23A
:1011E0005C53C2F200031A68012101321A6044F212
:1011F0000003C2F200031A7844F270504A401A7099
:1012000042F66053C0F200035B68C2F20000198826
:1012100000F08AF9E2E7C04610B5FFF7DBFD0020D9
:1012200010BDC04690B144F254430268C0F2570367
:101230009A4209D144F2002300220020C4F20403A0
:101240001A70FF321A7070470720FCE70120FAE796
:101250000200F0B500293ED000283CD044F25443AF
:101260000068C0F25703984237D00C78022C04D0A3
:10127000231F0120022B00D9F0BD0B790120012B87
:10128000FAD144F200207F33C4F204008E78CD7886
:101290004F784979837142F65053C0F200031B5DC9
:1012A00003241C40FF233F013B40370343F2000669
:1012B0003E4033432E0240F2003535402B4323435A
:1012C0004380CB01DBB2037244F25443C0F25703B4
:1012D00000201360D0E70120CEE70E20CCE7C04607
:1012E000F0B5C64600B50500806A84B08C469046CD
:1012F0006C46D8B12300060086CE86C336681E60D1
:10130000EB691B7803606346836043460371EB6AB5
:10131000C3606B6A9847AB6A23B107CC07C31A0056
:101320002368136004B080BCB846F0BD2000E7E736
:1013300070B5EFF30383103B5BB21A0046F2000175
:10134000C032C4F20001920050581D4C2040505051
:10135000525844F2EC529B00C2F200029858C36902
:101360001B6913B1036913B170BD036983B97F238E
:10137000026A91780B4004210B4393700023C360F1
:10138000436A002BF0D080220021FFF7A9FFEBE792
:1013900003218278114002290AD0C168056A0C78BD
:1013A000EC709207920F9B1A8A180361C260DAE709
:1013B0004FF60065C1680C882C43056AEC81F0E7A4
:1013C000FFFFFEFF10B582B0EFF30383103B5BB26B
:1013D0001A0046F20001C032C4F2000192005058D7
:1013E0001F4C20405050525844F2EC529B00C2F225
:1013F00000029C580323A2781340022B0DD0236ACD
:101400005979A369C9B2019183B9636A1BB10422F6
:101410002000FFF765FF02B010BD40F2FF11236A04
:101420001B8A1940A3690191002BEED09207920FFD
:10143000606901A900F02CFFA37862699B079B0FEC
:10144000D2186261A269D31AA361002BE3D1636A47
:10145000002BE0D0012200212000FFF741FFDAE756
:10146000FFFFFEFF10B5EFF3038444F2EC53103C92
:1014700064B2C2F20003A200D0587B23026A9178C2
:101480000B409370436A1BB102220021FFF728FF33
:10149000230046F20002C033C4F200029B009958B8
:1014A0000248014099509B5810BDC046FFFFFEFF07
:1014B00070B5EFF3038444F2EC53103C64B2C2F213
:1014C0000003A200D058032382781340022B22D0BD
:1014D000036A5979C9B238221D792A40ED0602D52E
:1014E0001D7FED0714D538261D79B5431D71436A5C
:1014F0000BB1FFF7F5FE230046F20002C033C4F241
:1015000000029B0099580748014099509B5870BDB4
:1015100040252A43E7E740F2FF11036A1A8A114087
:10152000D9E7C046FFFFFEFF00B345F25423006831
:10153000C5F24F03984213D1012A15D8FF20012389
:101540000840834072B14FF6FF7213400022C4F28C
:1015500004029446090A4901614400208B6000E0BE
:10156000072070471B04F1E70320FAE70120F8E7A2
:10157000F0B5DE4657464E464546E0B583B0EFF33C
:101580001082012383F3108844F2E853C2F200036F
:1015900001931B6833B940F60051C4F20401CB70CB
:1015A0004033CB7001990B6801330B6082F31088D4
:1015B00003889A46BBB3802340F600055B02994638
:1015C000284B002240F2FF089C464168C4F2040503
:1015D0000AE043461E4023019B1901329B0092B250
:1015E0005851083192451ED04B468E880868340AFF
:1015F0001842EED043461E4023019C19A7006446C2
:1016000000977F599B1927403C00009F01327C5175
:10161000674607403C00009F9B0092B27C51083116
:1016200058519245E0D1EFF31082012383F31088E3
:10163000019B1B681BB101990B68013B0B60019B6F
:101640001B6833B940F60051C4F20401CB708033FB
:10165000CB7082F3108803B0F0BCBB46B246A946FB
:10166000A046F0BDFFFFFEFF030010B5080073B1F8
:1016700069B14A685AB145F254221968C5F24F025D
:10168000914206D01A60FFF773FF002010BD0120C1
:10169000FCE70E20FAE7C046F0B5D6464F46464670
:1016A000C0B5002866D044F255330268C0F2490341
:1016B0009A4264D000295DD00F230A78D340DB071B
:1016C0005AD58B6813B14C78FF2C5AD0022540F2C2
:1016D000003A4D5746F20006AC00A446544640F28C
:1016E0000009C4F20006057166443759B8464F46F2
:1016F00037518360CB6846F20007C3604B46C4F2A3
:1017000000074271BB540B79CC781B0123434C7901
:10171000DBB2E4012343DBB2BB5443465246B35031
:10172000002D1CDB4EF20013CEF200039846534608
:10173000AA0892004244D65803231D404B78FF214B
:10174000ED009B010B40A940AB408E435146334313
:10175000535044F2EC536246C2F20003D05044F2BC
:101760005533C0F2490303600020E0BCBA46B146DD
:10177000A846F0BD0120F8E740F27A50F5E70E20C8
:10178000F3E70320F1E7C04610B500282ED044F25D
:1017900055330268C0F249039A4223D10423C35649
:1017A000002B21DB1A0046F20001C032C4F2000116
:1017B000920050580E4C204050505258BFF35F8F4B
:1017C0001F21012219408A404EF20011CEF2000181
:1017D0008C4640F280115B099B0063445A501A60AA
:1017E000002010BD0720FCE70B20FAE70120F8E7F6
:1017F000FFFFFEFF002829D044F255330268C0F2F3
:1018000049039A4220D104228256002A18DB1F2164
:101810005309114001228A404EF200112033CEF2CA
:1018200000019B005A50BFF34F8FBFF36F8F04220C
:1018300044F2EC5300218256C2F200039200D150D0
:1018400000230360002070470720FCE70120FAE72F
:1018500030B583B0EFF3038444F2EC53103C64B230
:10186000C2F20003A200D15846F200024879C4F245
:101870000002135C9B079B0F032B0FD0C034A40006
:10188000A358104D2B40A350A3588B6823B1CA68AE
:10189000019000926846984703B030BD8B6823B131
:1018A000CA68019000926846984746F20003C03427
:1018B000A400C4F20003E25802490A40E250E3588F
:1018C000EAE7C046FFFFFEFF68B145F25403026835
:1018D000C0F247039A4204D18368C26800209A602C
:1018E00070470720FCE70120FAE7C04668B145F2DF
:1018F00054030268C0F247039A4204D18368C26865
:1019000000205A6070470720FCE70120FAE7C04634
:10191000F0B5C64600B50500806984B08C46904697
:1019200001AC98B12300060086CE86C363460371DE
:1019300043468360EB6903606B699847AB690BB101
:1019400007CC07C304B080BCB846F0BD2000EDE76B
:1019500070B5554255414C6E013425B9A24202D2B0
:10196000013A1A6070BD049D496BED070CD50078F3
:10197000C902C90E03280CD901200909884382B184
:1019800080B903225A60EDE70078C906C90E032822
:10199000F2D80C200140043948424141C8B2002A23
:1019A000EED110B902225A60DCE7002CFAD0E8E749
:1019B000F0B5CE46474680B500283DDB40F2FF0932
:1019C0004EF2001403254E46CEF20004A44640F227
:1019D00000370540ED00AE4083089B006344DC59AE
:1019E0008901B44326004C460C40AC403443DC51E2
:1019F00044F2EC538100C2F20003CA50030046F2E5
:101A00000002C033C4F200029B0099580C4C2140E4
:101A100099509B58BFF35F8F1F22012302409340D0
:101A20004EF20012CEF20002944640F280124009BB
:101A30008000604483500360C0BCB946B046F0BD2E
:101A4000FFFFFEFFF0B54E46DE4657464546E0B581
:101A50000C00060085B0002900D1C8E0CD69002D3A
:101A600000D1C4E0002800D1C1E001230A7A13426A
:101A700000D0BCE00A2A00D9B9E00978032900D9CE
:101A8000BDE045F254020068C0F24702904200D126
:101A900047E1227C40F2F0309340F360184200D1DD
:101AA0003CE16369002B00D100E1A17C7F2900D9D2
:101AB00041E140F280700121C0F2400084460020E4
:101AC000317462447361A36912027460B260F3619D
:101AD000B061EFF3108C81F31088227C46F6FC7124
:101AE00053425A41C4F20401CF685301413B3B4089
:101AF000CB60CB688CF310884AF20053B1680B605E
:101B0000C862C8638864227A52081306984622780D
:101B1000636894465F1E032A00D1CBE04246CA6246
:101B2000802212060A614A618A61AA694862886253
:101B3000CA61EA690A62EA6A8F66924602AA904618
:101B400001225242914602924246506062464F66DE
:101B5000002A00D0E7E05046012240F2030C5B0867
:101B6000013B02934B658B6500284AD12B78002BF3
:101B700000D075E02078AB7833B3EB7898469B01C2
:101B8000994643464F461B013B439B46022800D1E2
:101B9000D6E0032800D1D9E047467B1E9F417F4213
:101BA000B84640F2030943464F461F40B84640F24C
:101BB0000609C84447465B463B4357461B041F4340
:101BC00080235B041F43BA4640F28808002347463F
:101BD00040F221088B63CB5147462033EB5CEF5D2D
:101BE0005B037F073B4357461F43BA460EE0012085
:101BF00005B0F0BCBB46B246A946A046F0BD0520E4
:101C0000F6E7002388208B630B502078AA23DB03A0
:101C10000B64012802D10023CB640B65F36812200A
:101C2000CB6053464B6363460B630A63617C3200AF
:101C30002056FFF7BDFE2223E95C0233E85632004E
:101C4000FFF7B6FE2323E95C0233E8563200FFF7C4
:101C5000AFFE45F25403C0F2470300203360C7E7EC
:101C60006B78207898469B01994643464F461B0166
:101C70003B439B46022860D0032864D047467B1E26
:101C80009F417F42B84640F2030943464F461F40FA
:101C9000B84640F20609C84447465B463B435746B0
:101CA0001F4340F200131F43BA4664E7012900D0E6
:101CB000FFE6FAE6802342465B021A4380231B06B6
:101CC000CA620B614B618B61AB6948628862CB6110
:101CD000EB690B62EB6A8F669A4602AB984601236A
:101CE0005B42029343464F6658600023E268706887
:101CF00000934346FFF72CFE40F2030C4246674632
:101D000040F201085068B16802040006024317431C
:101D1000BC464746029BE86A3A4323E740F27A50C2
:101D200066E70E2064E7012ADFD15046012240F227
:101D3000030C4B4616E70B205AE740F20908ABE7C5
:101D400040F2090836E740F20308A5E740F203082D
:101D500030E7C04630B5002863D045F2540302682E
:101D6000C0F247039A425AD14368D9699B7C5BB25F
:101D7000002B16DB1F2501241D40AC404EF2001540
:101D80005A092032CEF2000592005451BFF34F8F12
:101D9000BFF36F8F44F2EC520024C2F200029B00AA
:101DA0009C502423CB56002B16DB1F2501241D40FD
:101DB000AC404EF200155A092032CEF200059200D6
:101DC0005451BFF34F8FBFF36F8F44F2EC52002496
:101DD000C2F200029B009C502523CB56002B16DB41
:101DE0001F2401211C40A1404EF200145A09203248
:101DF000CEF2000492001151BFF34F8FBFF36F8FEB
:101E000044F2EC520021C2F200029B0099500022E1
:101E10008368C1680260002099605A6330BD072062
:101E2000FCE70120FAE7C046F0B5D6464F464646E5
:101E3000C0B5EFF30383103B5BB21A0046F2000615
:101E4000C032C4F2000692009159204840F2003A94
:101E50000140915146F200018146C4F20001980010
:101E600045185146695844F2EC51C2F200014058FD
:101E70004168097801290AD043691BB10022002179
:101E8000FFF746FDE0BCBA46B146A846F0BD40F2B9
:101E900000088468C768A7604746A764E7642765A9
:101EA0004F469459274097515246AA58BFF35F8F27
:101EB0001F245A092340994013004EF20014603346
:101EC000CEF200049B001951D6E7C046FFFFFEFF8B
:101ED0004EF20003262244F27001C4F20103985C22
:101EE0001B6A8000C2F2000141585B015B0F44F2A3
:101EF0007462D940C2F20002116070474EF20003D2
:101F000040F2FE323C49C4F2010330B599524CF222
:101F10000001002243F6C870C4F27E010A5444F264
:101F2000700046F60041C2F20000C0F2DC21016000
:101F300041F20021C0F27A01416048F20001C26022
:101F4000026181602632995C1A6A89004158520107
:101F5000520F44F27464D140C2F200042160A52201
:101F600003219954053A9A5CCAB136229A5C1AB98F
:101F700039315A5CD207FCD54EF20002A021C4F2DE
:101F80000102535CDB06DD0F002BFADB55544EF2E9
:101F90000002A021C4F20102535CDB06FCD44EF225
:101FA000000200213623C4F20102D1543C31535CBB
:101FB000DB07FCD501213123D1544FF6C473C4F2A1
:101FC0007E03197040F2001300251362DA3BD554EA
:101FD000D55C136AAD0040595B015B0FD84040F2FD
:101FE000FE3320600548D0524CF2000343F6C8721D
:101FF000C4F27E03995430BD03A5FFFF00A5FFFF87
:1020000028B10023C0F20243036000207047012082
:10201000FCE7C046F8B546F2000340F2401244F235
:10202000A85500240127C4F200039E5AC2F20005FD
:10203000B6B23300E340E0B21F4202D02B6803B1D6
:10204000984701340435102CF3D146F2000340F2D6
:102050003012C4F200039E52F8BDC04646F20000A2
:102060000023C4F2000042F63052C0F200029A1877
:1020700011781A00C032920001331150202BF2D196
:102080007047C04670B5EFF31081012383F31088C9
:1020900044F26C634000C2F200031A5A1AB11A5A91
:1020A000013A92B21A521B5A83B94EF2000240F220
:1020B000FE3542F65854C4F20102565B054BC0F29D
:1020C0000004205A334383439BB2535381F3108857
:1020D00070BDC04600A5FFFF70B5EFF3108101236E
:1020E00083F3108844F26C624000C2F20002135A7B
:1020F00083B94EF2000442F6585540F2FE36C4F25F
:102100000104C0F20005A35B2D5A2B434AF200558F
:102110002B43A353135A01339BB2135281F31088FC
:1021200070BDC04600BE704710B500F003F8FFF761
:1021300073F8FEE7F0B54EF6005340F20005CEF21C
:102140000003C0F2000583B09D600020FEF7BCFFD5
:10215000FFF7D4FE6B460027DC1D27700120237893
:10216000FFF7BAFFEFF31081012686F3108846F6D9
:10217000FC73C4F204039A683B4802409A609A6870
:1021800081F3108840F60001C4F204010A68D20706
:10219000D20F22700A68D207D20F22700A68D207C3
:1021A000D20F2270EFF3108186F310888022986896
:1021B000520502439A609B6881F310880120FFF763
:1021C00061FF0120FEF780FF40F60053274AC4F26A
:1021D00000039F8026491A802A6841F200005118A6
:1021E0009960DA6046F2000240F22011C4F2000267
:1021F000505244F2786244F28800C2F20002C2F205
:1022000000009E800021121A00F04BF844F20000FA
:1022100044F2700242F6D461C2F20000C2F200023F
:10222000121AC0F2000100F033F844F2680544F2DB
:102230006C03C2F20005C2F200035B1B9E10002B70
:1022400005DD002408CD01349847A642FADCFFF7EB
:102250003FFE0220FEF738FFFFF700FF002000F0EE
:1022600009F803B0F0BDC046FFFFFFEF00A5FFFF78
:1022700000FCFFFF7047C04610B50A22002100F0A5
:10228000A7F810BD014B18687047C04604400020F5
:10229000002310B59A4200D110BDCC5CC454013368
:1022A000F8E703008218934200D170471970013398
:1022B000F9E7FFFFF0B585B0039000910192012B83
:1022C00044D00800242B41D83F4A082594460400F6
:1022D000664622780130B65C010037002F402E425E
:1022E000F5D12D2A39D140F2010C0278A11C002B26
:1022F00065D0102B09D1302A07D120200A788243DB
:10230000582A57D110234A780231304E18006644BB
:10231000B6FBF3F700247843301A02902000150032
:10232000303D092D1FD82A0093422BDD002C26DBDF
:1023300001246442874206D302D1029D954202DB0A
:102340000124584310180A780131E8E7FFF79AFF93
:1023500016230360002005B0F0BDBC462B2AC6D171
:102360000278A11CC3E71500413D192D01D8373A69
:10237000DAE71500613D192D04D8573AD4E7012456
:102380006442E0E7002C09DA2223039A300013604C
:10239000019B002BDFD04B1E009307E0634603B187
:1023A0004042019B002BD6D0002CF4D1019B009A17
:1023B0001A60D0E73022002BA7D10833A5E7302AD6
:1023C0009BD00A23A1E7C0466F2D0000FFFFFF7FCF
:1023D00010B513000A00010002480068FFF76AFF09
:1023E00010BDC046044000204275696C74207769B6
:1023F00074682052656E6573617320416476616E06
:1024000063656420466C657869626C6520536F660D
:102410007477617265205061636B616765207665D2
:102420007273696F6E20342E322E3000342E322EAD
:102430003000000000000204F8B5C046F8BC08BC3B
:102440009E467047F8B5C046F8BC08BC9E4670472B
:102450005465726D696E616C00FFFFFF0000000043
:1024600000005454522052454747455300FFFFFF98
:10247000E20A0000BA0A0000BA0A0000BA0A000024
:10248000BA0A0000BA0A0000BA0A0000BA0A00003C
:10249000BA0A0000BA0A0000BA0A0000080C0000DC
:1024A0006C0B0000BA0A0000BA0A0000BA0A000069
:1024B000BA0A0000BA0A0000BA0A0000BA0A00000C
:1024C000BA0A0000BA0A0000BA0A0000BA0A0000FC
:1024D0004A0B0000BA0A0000BA0A0000220B0000F2
:1024E000BA0A0000020B0000BA0A0000BA0A000093
:1024F000E20A000030313233343536373839414260
:10250000434445460D0A202A2A20525F4943555F1D
:1025100045787465726E616C4972714F70656E209A
:10252000415049204661696C6564202A2A200D0AC1
:10253000000000005B4552525D20496E2046756EDA
:102540006374696F6E3A20257328292C2025730047
:102550000D0A202A2A20525F4943555F4578746549
:10256000726E616C497271456E61626C652041509A
:1025700049204661696C6564202A2A200D0A00FF03
:102580000D0A202A2A20525F4943555F4578746519
:10259000726E616C497271436C6F73652041504972
:1025A000206661696C6564202A2A200D0A00FFFFFD
:1025B0000D0A202A2A20525F4750545F53746F70CF
:1025C00020415049206661696C6564202A2A200DEB
:1025D0000A0000000D0A5075736820627574746FEC
:1025E0006E20697320707265737365640D0A4750BD
:1025F000542074696D65722073746F707065642EF9
:102600000D0A00FF6578745F6972715F63616C6CBD
:102610006261636B00FFFFFF6465696E69745F69E7
:1026200063755F6D6F64756C6500FFFF656E616259
:102630006C655F6963755F6D6F64756C6500FFFF46
:10264000696E69745F6963755F6D6F64756C650051
:102650000D0A2A2A2A2A2A2A2A2A2A2A2A2A2A2A17
:102660002A2A2A2A2A2A2A2A2A2A2A2A2A2A2A2ACA
:102670002A2A2A2A2A2A2A2A2A2A2A2A2A2A2A2ABA
:102680002A2A2A2A2A2A2A2A2A2A2A2A2A2A2A2AAA
:102690002A2A2A2A000000000D0A2A20202052653A
:1026A0006E6573617320465350204578616D706C80
:1026B000652050726F6A65637420666F7220725F66
:1026C000776474204D6F64756C6520202020202075
:1026D00020202020202020202020202A0000000070
:1026E000312E30000D0A2A2020204578616D706C53
:1026F000652050726F6A6563742056657273696FE6
:102700006E20257320202020202020202020202023
:1027100020202020202020202020202020202020B9
:102720002020202020202A000D0A2A202020466C6C
:10273000657820536F667477617265205061636BB2
:102740002056657273696F6E202025642E25642ED5
:102750002564202020202020202020202020202030
:1027600020202020202020202020202020202A007F
:102770000D0A526566657220746F20726561646D22
:10278000652E7478742066696C6520666F72206DA2
:102790006F72652064657461696C73206F6E20458B
:1027A00078616D706C652050726F6A65637420612A
:1027B0006E640D0A46535020557365722773204D81
:1027C000616E75616C20666F72206D6F7265206935
:1027D0006E666F726D6174696F6E2061626F757481
:1027E00020725F776474206472697665720D0A00E6
:1027F0000D0A54686973206578616D706C6520708E
:10280000726F6A6563742064656D6F6E7374726154
:1028100074657320746865207479706963616C20D5
:10282000757365206F66207468652057445420488E
:10283000414C206D6F64756C6520415049730000F8
:102840000D0A5573657220696E70757420696E6922
:102850007469616C697A65732074686520574454A3
:1028600020616E6420737461727420475054207428
:10287000696D6572000000000D0A57445420636FB3
:10288000756E74657220697320726566726573680F
:10289000656420706572696F646963616C6C79202E
:1028A00065766572792031207365636F6E64207779
:1028B00068656E20746865204750542074696D65A2
:1028C0007220657870697265730000000D0A4F6EA2
:1028D000207072657373696E672074686520507527
:1028E000736820627574746F6E2C20574454206393
:1028F0006F756E7465722073746F70732066726F7B
:102900006D2072656672657368696E67000000000D
:102910000D0A5744542072657365747320207468DF
:1029200065204D435520696E2032207365636F6EBC
:1029300064730D0A000000000D0A4E6F206F6E2DAB
:10294000626F617264204C45447320466F756E64FB
:10295000000000000D0A52657475726E65642045B2
:1029600072726F7220436F64653A20307825782048
:10297000200D0A000D0A2A2A2A2A2A2A2A2A2A2A65
:102980002A2A2A2A2A2A2A2A2A2A2A2A2A2A205784
:10299000445420526573657420646574656374657E
:1029A00064202A2A2A2A2A2A2A2A2A2A2A2A2A2A57
:1029B0002A2A2A2A2A2A2A2A2A2A0D0A000000005C
:1029C0000D0A202A2A204750542054494D455220B0
:1029D000494E4954204641494C4544202A2A200D5D
:1029E0000A0000000D0A202A2A2045585445524E5C
:1029F000414C2049525120494E4954204641494CAE
:102A00004544202A2A200D0A000000000D0A456EC8
:102A1000746572203120746F20456E61626C652090
:102A20005744540D0A0000005573657220496E70BA
:102A300075743A20200000000D0A202A2A20525FD7
:102A40005744545F4F70656E20415049204661697C
:102A50006C6564202A2A200D0A0000000D0A202A35
:102A60002A204750542054494D4552205354415236
:102A700054204641494C4544202A2A200D0A000092
:102A80000D0A202A2A2045585445524E414C2049CF
:102A9000525120454E41424C45204641494C454407
:102AA000202A2A200D0A00000D0A57445420696E7E
:102AB000697469616C697A65642C204750542054AC
:102AC000696D657220537461727465640000000062
:102AD0000D0A546F2073746F702057445420636F35
:102AE000756E7465722066726F6D207265667265B0
:102AF0007368696E672C20707265737320746865E3
:102B0000207075736820627574746F6E0D0A000012
:102B10000D0A496E76616C696420496E70757400A7
:102B20000D0A506C656173652070726F766964651B
:102B300020696E7075742066726F6D2062656C6FAF
:102B400077206F7074696F6E000000000D0A5744A3
:102B50005420636F756E746572205265667265737A
:102B60006865642E00FFFFFF726561645F496E70E7
:102B700075745F66726F6D5F5254540068616C5F6C
:102B8000656E74727900FFFF0D0A202A2A20525FB9
:102B90004750545F54696D65724F70656E204150A7
:102BA00049206661696C6564202A2A200D0A00FFAD
:102BB0000D0A202A2A20525F4750545F53746172D5
:102BC0007420415049206661696C6564202A2A207E
:102BD0000D0A00FF0D0A202A2A20525F4750545F39
:102BE000436C6F736520415049206661696C656470
:102BF000202A2A200D0A00FF0D0A202A2A20525FCF
:102C00005744545F5265667265736820415049208D
:102C10006661696C6564202A2A200D0A00FFFFFFA7
:102C20006770745F63616C6C6261636B00FFFFFFD0
:102C30006465696E69745F6770745F6D6F64756CED
:102C40006500FFFF74696D65725F73746172740073
:102C5000696E69745F6770745F6D6F64756C650031
:102C60000102010003010000950D000000000000BA
:102C700000000000000000001BB700000A00000078
:102C80008D5B0000060206009511000000000000A8
:102C9000942C000001000100000000000000000072
:102CA0000000000000000000000000000000000024
:102CB000000000000000FFFFDFDF00000000000058
:102CC00000000000060803030101000000000000EE
:102CD00000000000000000000A000000E02C0000DE
:102CE000040000000F0000000000010400010000CB
:102CF00000000104010100000000010008010000C3
:102D0000050000000C01000000400000050200006A
:102D100000000100000300000000010700040000A3
:102D20000000010701040000040000000E0900007B
:102D3000000100001E1C181A0000000000001E0008
:102D40000000000000000000000000000000000083
:102D5000FFFF00FF010203FF010002000800100056
:102D600003000000682D00000C010E090F00002078
:102D7000202020202020202028282828282020202B
:102D800020202020202020202020202020202088DB
:102D9000101010101010101010101010101010043F
:102DA000040404040404040404101010101010108F
:102DB0004141414141410101010101010101010183
:102DC0000101010101010101010110101010101099
:102DD0004242424242420202020202020202020253
:102DE000020202020202020202021010101020006F
:102DF00000000000000000000000000000000000D3
:102E000000000000000000000000000000000000C2
:102E100000000000000000000000000000000000B2
:102E200000000000000000000000000000000000A2
:102E30000000000000000000000000000000000092
:102E40000000000000000000000000000000000082
:102E50000000000000000000000000000000000072
:102E6000000000000000000000000000000000FF63
:102E70000000000000000000000000000000000052
:102E80000000000000000000000000000000000042
:102E90000000000000000000000000000000000032
:102EA0000000000000000000000000000000000022
:102EB0000000000000000000000000000000000012
:102EC0000000000000000000000000000000000002
:042ED00000000000FE
:102ED400010000000840002000000000902E0000C7
:102EE400B02E0000702E0000000000000000000062
:102EF40000000000000000000000000000000000CE
:102F040000000000000000000000000000000000BD
:102F140000000000000000000000000000000000AD
:102F2400000000000000000000000000000000009D
:102F340000000000000000002D0500000105000055
:020000040101F8
:10001800FFFFFFFFFFFFFFFFFFFFFFFFFFFFFFFFE8
:0C002800FFFFFFFFFFFFFFFFFFFFFFFFD8
:0400000300002129AF
:00000001FF
